:100000000C943C000C9459000C9459000C94590029
:100010000C9459000C9459000C9459000C945900FC
:100020000C9459000C9459000C9459000C945900EC
:100030000C9459000C9427010C9459000C9459000D
:100040000C940F010C942E020C9459000C9459003E
:100050000C9459000C9459000C9459000C945900BC
:100060000C9459000C9459000C9459000C945900AC
:100070000C9459000C94590011241FBECFEFCDBF32
:10008000DFE3DEBF18E3A0E0B8E3E4E5FDE002C093
:1000900005900D92A431B107D9F728E3A4E1B8E3A4
:1000A00001C01D92AD32B207E1F70E94CD020C945F
:1000B000A8060C940000CF93DF93C0911E38D09116
:1000C0001F38C230D10509F465C050F42097F9F00B
:1000D000C130D10571F110921E3810921F3826C020
:1000E000C430D10509F492C008F487C0259799F768
:1000F00082E090E080932738909328381092293836
:1001000010922A3810922B3810922C380FC08FEF93
:100110008093C4081092293810922A3810922B38F4
:1001200010922C381092273810922838DF91CF91F6
:10013000089580910D388093C408609105387091BE
:10014000063890E080E00E9484052FEA3FE041EA13
:1001500054E30E9417069B01AC0160E070E080E868
:100160009FE30E94E3040E94550560932538709335
:1001700026386093143870931538109229381092ED
:100180002A3810922B3810922C38C0932738D093ED
:100190002838CCCF80910E388093C40860910738FE
:1001A0007091083890E080E00E9484052FEA3FE0DB
:1001B00041EA54E30E9417069B01AC0160E070E045
:1001C00080E89FE30E94E3040E9455056093253870
:1001D000709326386093143870931538109229382C
:1001E00010922A3810922B3810922C3881E090E02F
:1001F000809327389093283899CF80910F38809337
:10020000C4086091093870910A38CCCF80911038B9
:100210008093C40860910B3870910C38C3CF1F9243
:100220000F920FB60F9211248F93EF93FF93E0E09C
:10023000F4E082E08683858380E88093C308FF91A1
:10024000EF918F910F900FBE0F901F9018951F92F6
:100250000F920FB60F9211248F929F92AF92BF927E
:10026000CF92DF92EF92FF922F933F934F935F9342
:100270006F937F938F939F93AF93BF93EF93FF936E
:100280008091100690911106A0911206B09113066C
:10029000682F70E090E080E00E94840520E030E06C
:1002A0004FE753E40E94E30420E030EC4AED54E4CD
:1002B0000E94170620E030E04AE753E40E947704EA
:1002C0000E9455056B01F12CE12CC0922138D0928F
:1002D0002238E0922338F0922438609129387091C6
:1002E0002A3880912B3890912C386F5F7F4F8F4F39
:1002F0009F4F6093293870932A3880932B389093BE
:100300002C3820912738309128382130310509F4D4
:1003100045C048F02230310509F474C010922738E6
:10032000109228381BC02091253830912638209310
:10033000380A3093390AC616D706E806F90650F58A
:100340001092293810922A3810922B3810922C389B
:1003500010922738109228381092203881E080932C
:10036000860AFF91EF91BF91AF919F918F917F91FD
:100370006F915F914F913F912F91FF90EF90DF90A0
:10038000CF90BF90AF909F908F900F900FBE0F9027
:100390001F90189581E080932038E0CF0E9484055B
:1003A0004B015C01C701B6010E94840520E030E0EA
:1003B00040E05FE30E9417069B01AC01C501B40158
:1003C0000E94120618167CF41092293810922A38CE
:1003D00010922B3810922C3810921E3810921F3821
:1003E0000E945B00BBCF8091253890912638809386
:1003F000360A9093370A969587958093380A90939A
:10040000390AACCF0E9484054B015C01C701B601DB
:100410000E94840520E030E040E05FE30E94170680
:100420009B01AC01C501B4010E941206181664F2CA
:1004300080911D38882351F0813009F08FCF809151
:1004400012388093C40810921D3888CF80911138DB
:100450008093C40881E080931D3880CF1F920F9253
:100460000FB60F9211242F933F934F935F936F9387
:100470007F938F939F93AF93BF93EF93FF9380915D
:100480000008843309F469C0A8F4813309F43FC03B
:1004900050F48C32B9F08E3209F462C010921B38DD
:1004A00010921C3849C08233D9F18333B9F783E005
:1004B00090E02FC08C3609F453C018F58536B9F397
:1004C0008B3661F7E5E0F8E3DF0120E08D919D9147
:1004D000880F991F81329E4408F021E088E3AD30F7
:1004E000B807A1F7211128C081919191DF011297DE
:1004F000880F991F8D939C9398E3ED30F907A1F72E
:100500001BC0823751F1873759F0813739F681E0C6
:1005100090E080931E3890931F3882E090E006C0F0
:1005200082E090E080931E3890931F3880931B38B0
:1005300090931C380E945B00FF91EF91BF91AF91A7
:100540009F918F917F916F915F914F913F912F91EB
:100550000F900FBE0F901F90189584E090E0D9CFB8
:10056000E5E0F8E3DF0180E02D913D91283231058F
:1005700008F481E038E3AD30B307B1F78111DCCF87
:1005800081919191DF011297969587958D939C9318
:1005900088E3ED30F807A1F7CFCFCF93DF931F9219
:1005A000CDB7DEB781E0809300061092010690E29D
:1005B0009093020620E4209308069093090692E0A7
:1005C00090930C0680930A0624E0209321044DE6C4
:1005D00055E0409308085093090830E83093050827
:1005E00030EC30930608F8948093E305909305046B
:1005F0009093010495E0909341042093C10891E207
:100600009093C0088093C2087894F8948093210452
:100610001092000A83E18093010A1092360A109228
:10062000370A1092380A1092390A8091000A8160C4
:100630008093000A789488E08093140480931504D2
:1006400080931604809317043FEF5524539403E0DE
:1006500010E066246394712C75E0C72ED12CE4E081
:10066000EE2EF12CF8941092810A85E09DE08093A3
:100670008C0A90938D0A5092850A5092800A789441
:100680004090080480911B3890911C38823091056D
:1006900009F4C9C058F40097B1F08130910509F40C
:1006A0007EC010921B3810921C3828C084309105EF
:1006B00009F409C108F4C0C0059799F78091203862
:1006C00081111CC0EECF20900438809000389090AB
:1006D0000138A0900238B0900338312C90E080E0CF
:1006E000321470F023942092043850922038609293
:1006F0001B3870921C38A12CBB24B394342DB2CF7C
:1007000081309105E1F082309105C9F1882D817029
:10071000B694A79497948794882341F09BEA8926FE
:100720009CE3992692E0A92692EEB926882D837043
:1007300080931A385092203881E090E0D1CF2091F8
:100740001A38211109C080931E3890931F380E94D7
:100750005B0082E090E0C4CF213019F482E090E0A9
:10076000F2CF223029F400931E3810931F38EFCFB8
:10077000233079F7E0921E38F0921F38E8CF2091AD
:100780002038211103C0339490E080E08092163825
:1007900090921738A0921838B0921938A1CF242D12
:1007A0002095232324FF0EC080931E3890931F387A
:1007B00082E090E080931B3890931C380E945B008D
:1007C00019829CCF25FF0FC082E090E080931E38F5
:1007D00090931F3880931B3890931C380E945B00C5
:1007E00091E099838BCF26FF0EC000931E381093A3
:1007F0001F3882E090E080931B3890931C380E9451
:100800005B0092E0EECF27FF79CFE0921E38F092A6
:100810001F3882E090E080931B3890931C380E9430
:100820005B0093E0DECF80912038811167CF009389
:100830001B3810931C3862CF80910038909101389A
:10084000A0910238B091033820911A3830E0B312E9
:100850001BC020931A388981821711F0AA24A3940F
:1008600060921B3870921C38809104388150990B2B
:10087000B816190639F491E0A9121AC0E0921B3893
:10088000F0921C38B3943ACF282F2170B695A795D3
:1008900097958795222341F02BEA82272CE3922714
:1008A00022E0A22722EEB2273F5F282F2370CFCF6E
:1008B000C0921B38D0921C38C0921E38D0921F387C
:1008C0000E945B00DFCF50920438809116389091DF
:1008D0001738A0911838B091193880930038909348
:1008E0000138A0930238B0930338DBCE5058BB27B1
:1008F000AA270E948E040C94D8050E94CA0538F0DD
:100900000E94D10520F039F49F3F19F426F40C948D
:10091000C7050EF4E095E7FB0C94C105E92F0E9492
:10092000E90558F3BA17620773078407950720F0A3
:1009300079F4A6F50C940B060EF4E0950B2EBA2F65
:10094000A02D0B01B90190010C01CA01A0011124D5
:10095000FF27591B99F0593F50F4503E68F11A1681
:10096000F040A22F232F342F4427585FF3CF469512
:1009700037952795A795F0405395C9F77EF41F1634
:10098000BA0B620B730B840BBAF09150A1F0FF0FFE
:10099000BB1F661F771F881FC2F70EC0BA0F621FEA
:1009A000731F841F48F4879577956795B795F795DA
:1009B0009E3F08F0B0CF9395880F08F09927EE0F6F
:1009C0009795879508950E94F7040C94D8050E9486
:1009D000D10558F00E94CA0540F029F45F3F29F084
:1009E0000C94C10551110C940C060C94C7050E947F
:1009F000E90568F39923B1F3552391F3951B550B42
:100A0000BB27AA2762177307840738F09F5F5F4FE1
:100A1000220F331F441FAA1FA9F335D00E2E3AF020
:100A2000E0E832D091505040E695001CCAF72BD038
:100A3000FE2F29D0660F771F881FBB1F2617370789
:100A40004807AB07B0E809F0BB0B802DBF01FF27BB
:100A500093585F4F3AF09E3F510578F00C94C105D2
:100A60000C940C065F3FE4F3983ED4F3869577959B
:100A70006795B795F7959F5FC9F7880F911D969574
:100A8000879597F90895E1E0660F771F881FBB1FD0
:100A9000621773078407BA0720F0621B730B840B7D
:100AA000BA0BEE1F88F7E09508950E94F10588F0D3
:100AB0009F5798F0B92F9927B751B0F0E1F0660F22
:100AC000771F881F991F1AF0BA95C9F714C0B13063
:100AD00091F00E940B06B1E008950C940B06672F6D
:100AE000782F8827B85F39F0B93FCCF38695779592
:100AF0006795B395D9F73EF490958095709561957B
:100B00007F4F8F4F9F4F0895E89409C097FB3EF4A5
:100B100090958095709561957F4F8F4F9F4F99234A
:100B2000A9F0F92F96E9BB279395F69587957795C8
:100B30006795B795F111F8CFFAF4BB0F11F460FF88
:100B40001BC06F5F7F4F8F4F9F4F16C0882311F0E0
:100B500096E911C0772321F09EE8872F762F05C0F4
:100B6000662371F096E8862F70E060E02AF09A958F
:100B7000660F771F881FDAF7880F9695879597F984
:100B8000089597F99F6780E870E060E008959FEF0F
:100B900080EC089500240A94161617061806090614
:100BA000089500240A9412161306140605060895E3
:100BB000092E0394000C11F4882352F0BB0F40F46B
:100BC000BF2B11F460FF04C06F5F7F4F8F4F9F4FAB
:100BD000089557FD9058440F551F59F05F3F71F02D
:100BE0004795880F97FB991F61F09F3F79F0879594
:100BF0000895121613061406551FF2CF4695F1DF1D
:100C000008C0161617061806991FF1CF86957105AC
:100C1000610508940895E894BB2766277727CB01E0
:100C200097F908950E94840608F48FEF08950E94B2
:100C30002A060C94D8050E94CA0538F00E94D105F6
:100C400020F0952311F00C94C1050C94C7051124D4
:100C50000C940C060E94E90570F3959FC1F3950F63
:100C600050E0551F629FF001729FBB27F00DB11D30
:100C7000639FAA27F00DB11DAA1F649F6627B00DC0
:100C8000A11D661F829F2227B00DA11D621F739FA9
:100C9000B00DA11D621F839FA00D611D221F749FB7
:100CA0003327A00D611D231F849F600D211D822FFE
:100CB000762F6A2F11249F5750409AF0F1F0882325
:100CC0004AF0EE0FFF1FBB1F661F771F881F915052
:100CD0005040A9F79E3F510580F00C94C1050C943B
:100CE0000C065F3FE4F3983ED4F3869577956795BD
:100CF000B795F795E7959F5FC1F7FE2B880F911D7C
:100D00009695879597F90895990F0008550FAA0BA6
:100D1000E0E8FEEF16161706E807F907C0F012160E
:100D20001306E407F50798F0621B730B840B950B11
:100D300039F40A2661F0232B242B252B21F4089566
:100D40000A2609F4A140A6958FEF811D811D089503
:040D5000F894FFCF45
:100D5400615527110159012201CD01AD00BEEB3EC1
:040D64006BAA2A004C
:00000001FF
